{
  "_format": "hh-sol-artifact-1",
  "contractName": "AbstractNFT",
  "sourceName": "contracts/AbstractNFT.sol",
  "abi": [
    {
      "inputs": [
        {
          "internalType": "string",
          "name": "_name",
          "type": "string"
        },
        {
          "internalType": "string",
          "name": "_symbol",
          "type": "string"
        }
      ],
      "stateMutability": "nonpayable",
      "type": "constructor"
    },
    {
      "anonymous": false,
      "inputs": [
        {
          "indexed": true,
          "internalType": "address",
          "name": "owner",
          "type": "address"
        },
        {
          "indexed": true,
          "internalType": "address",
          "name": "approved",
          "type": "address"
        },
        {
          "indexed": true,
          "internalType": "uint256",
          "name": "tokenId",
          "type": "uint256"
        }
      ],
      "name": "Approval",
      "type": "event"
    },
    {
      "anonymous": false,
      "inputs": [
        {
          "indexed": true,
          "internalType": "address",
          "name": "owner",
          "type": "address"
        },
        {
          "indexed": true,
          "internalType": "address",
          "name": "operator",
          "type": "address"
        },
        {
          "indexed": false,
          "internalType": "bool",
          "name": "approved",
          "type": "bool"
        }
      ],
      "name": "ApprovalForAll",
      "type": "event"
    },
    {
      "anonymous": false,
      "inputs": [
        {
          "indexed": true,
          "internalType": "address",
          "name": "from",
          "type": "address"
        },
        {
          "indexed": true,
          "internalType": "address",
          "name": "to",
          "type": "address"
        },
        {
          "indexed": true,
          "internalType": "uint256",
          "name": "tokenId",
          "type": "uint256"
        }
      ],
      "name": "Transfer",
      "type": "event"
    },
    {
      "inputs": [
        {
          "internalType": "address",
          "name": "to",
          "type": "address"
        },
        {
          "internalType": "uint256",
          "name": "tokenId",
          "type": "uint256"
        }
      ],
      "name": "approve",
      "outputs": [],
      "stateMutability": "nonpayable",
      "type": "function"
    },
    {
      "inputs": [
        {
          "internalType": "address",
          "name": "owner",
          "type": "address"
        }
      ],
      "name": "balanceOf",
      "outputs": [
        {
          "internalType": "uint256",
          "name": "",
          "type": "uint256"
        }
      ],
      "stateMutability": "view",
      "type": "function"
    },
    {
      "inputs": [
        {
          "internalType": "string",
          "name": "tokenURI",
          "type": "string"
        }
      ],
      "name": "createCollectible",
      "outputs": [
        {
          "internalType": "uint256",
          "name": "",
          "type": "uint256"
        }
      ],
      "stateMutability": "nonpayable",
      "type": "function"
    },
    {
      "inputs": [
        {
          "internalType": "uint256",
          "name": "tokenId",
          "type": "uint256"
        }
      ],
      "name": "getApproved",
      "outputs": [
        {
          "internalType": "address",
          "name": "",
          "type": "address"
        }
      ],
      "stateMutability": "view",
      "type": "function"
    },
    {
      "inputs": [
        {
          "internalType": "address",
          "name": "owner",
          "type": "address"
        },
        {
          "internalType": "address",
          "name": "operator",
          "type": "address"
        }
      ],
      "name": "isApprovedForAll",
      "outputs": [
        {
          "internalType": "bool",
          "name": "",
          "type": "bool"
        }
      ],
      "stateMutability": "view",
      "type": "function"
    },
    {
      "inputs": [],
      "name": "name",
      "outputs": [
        {
          "internalType": "string",
          "name": "",
          "type": "string"
        }
      ],
      "stateMutability": "view",
      "type": "function"
    },
    {
      "inputs": [
        {
          "internalType": "uint256",
          "name": "tokenId",
          "type": "uint256"
        }
      ],
      "name": "ownerOf",
      "outputs": [
        {
          "internalType": "address",
          "name": "",
          "type": "address"
        }
      ],
      "stateMutability": "view",
      "type": "function"
    },
    {
      "inputs": [
        {
          "internalType": "address",
          "name": "from",
          "type": "address"
        },
        {
          "internalType": "address",
          "name": "to",
          "type": "address"
        },
        {
          "internalType": "uint256",
          "name": "tokenId",
          "type": "uint256"
        }
      ],
      "name": "safeTransferFrom",
      "outputs": [],
      "stateMutability": "nonpayable",
      "type": "function"
    },
    {
      "inputs": [
        {
          "internalType": "address",
          "name": "from",
          "type": "address"
        },
        {
          "internalType": "address",
          "name": "to",
          "type": "address"
        },
        {
          "internalType": "uint256",
          "name": "tokenId",
          "type": "uint256"
        },
        {
          "internalType": "bytes",
          "name": "_data",
          "type": "bytes"
        }
      ],
      "name": "safeTransferFrom",
      "outputs": [],
      "stateMutability": "nonpayable",
      "type": "function"
    },
    {
      "inputs": [
        {
          "internalType": "address",
          "name": "operator",
          "type": "address"
        },
        {
          "internalType": "bool",
          "name": "approved",
          "type": "bool"
        }
      ],
      "name": "setApprovalForAll",
      "outputs": [],
      "stateMutability": "nonpayable",
      "type": "function"
    },
    {
      "inputs": [
        {
          "internalType": "bytes4",
          "name": "interfaceId",
          "type": "bytes4"
        }
      ],
      "name": "supportsInterface",
      "outputs": [
        {
          "internalType": "bool",
          "name": "",
          "type": "bool"
        }
      ],
      "stateMutability": "view",
      "type": "function"
    },
    {
      "inputs": [],
      "name": "symbol",
      "outputs": [
        {
          "internalType": "string",
          "name": "",
          "type": "string"
        }
      ],
      "stateMutability": "view",
      "type": "function"
    },
    {
      "inputs": [],
      "name": "tokenCounter",
      "outputs": [
        {
          "internalType": "uint256",
          "name": "",
          "type": "uint256"
        }
      ],
      "stateMutability": "view",
      "type": "function"
    },
    {
      "inputs": [
        {
          "internalType": "uint256",
          "name": "tokenId",
          "type": "uint256"
        }
      ],
      "name": "tokenURI",
      "outputs": [
        {
          "internalType": "string",
          "name": "",
          "type": "string"
        }
      ],
      "stateMutability": "view",
      "type": "function"
    },
    {
      "inputs": [
        {
          "internalType": "address",
          "name": "from",
          "type": "address"
        },
        {
          "internalType": "address",
          "name": "to",
          "type": "address"
        },
        {
          "internalType": "uint256",
          "name": "tokenId",
          "type": "uint256"
        }
      ],
      "name": "transferFrom",
      "outputs": [],
      "stateMutability": "nonpayable",
      "type": "function"
    }
  ],
  "bytecode": "0x60806040523480156200001157600080fd5b5060405162002e4d38038062002e4d83398181016040528101906200003791906200019f565b81818160009080519060200190620000519291906200007d565b5080600190805190602001906200006a9291906200007d565b5050506000600781905550505062000343565b8280546200008b90620002af565b90600052602060002090601f016020900481019282620000af5760008555620000fb565b82601f10620000ca57805160ff1916838001178555620000fb565b82800160010185558215620000fb579182015b82811115620000fa578251825591602001919060010190620000dd565b5b5090506200010a91906200010e565b5090565b5b80821115620001295760008160009055506001016200010f565b5090565b6000620001446200013e8462000246565b62000212565b9050828152602081018484840111156200015d57600080fd5b6200016a84828562000279565b509392505050565b600082601f8301126200018457600080fd5b8151620001968482602086016200012d565b91505092915050565b60008060408385031215620001b357600080fd5b600083015167ffffffffffffffff811115620001ce57600080fd5b620001dc8582860162000172565b925050602083015167ffffffffffffffff811115620001fa57600080fd5b620002088582860162000172565b9150509250929050565b6000604051905081810181811067ffffffffffffffff821117156200023c576200023b62000314565b5b8060405250919050565b600067ffffffffffffffff82111562000264576200026362000314565b5b601f19601f8301169050602081019050919050565b60005b83811015620002995780820151818401526020810190506200027c565b83811115620002a9576000848401525b50505050565b60006002820490506001821680620002c857607f821691505b60208210811415620002df57620002de620002e5565b5b50919050565b7f4e487b7100000000000000000000000000000000000000000000000000000000600052602260045260246000fd5b7f4e487b7100000000000000000000000000000000000000000000000000000000600052604160045260246000fd5b612afa80620003536000396000f3fe608060405234801561001057600080fd5b50600436106100f55760003560e01c80636352211e11610097578063b88d4fde11610066578063b88d4fde14610296578063c87b56dd146102b2578063d082e381146102e2578063e985e9c514610300576100f5565b80636352211e146101fc57806370a082311461022c57806395d89b411461025c578063a22cb4651461027a576100f5565b8063095ea7b3116100d3578063095ea7b31461017857806323b872dd1461019457806331f1f3c3146101b057806342842e0e146101e0576100f5565b806301ffc9a7146100fa57806306fdde031461012a578063081812fc14610148575b600080fd5b610114600480360381019061010f9190611c4d565b610330565b6040516101219190612452565b60405180910390f35b610132610412565b60405161013f919061246d565b60405180910390f35b610162600480360381019061015d9190611ce0565b6104a4565b60405161016f91906123eb565b60405180910390f35b610192600480360381019061018d9190611c11565b610529565b005b6101ae60048036038101906101a99190611b0b565b610641565b005b6101ca60048036038101906101c59190611c9f565b6106a1565b6040516101d7919061268f565b60405180910390f35b6101fa60048036038101906101f59190611b0b565b6106db565b005b61021660048036038101906102119190611ce0565b6106fb565b60405161022391906123eb565b60405180910390f35b61024660048036038101906102419190611aa6565b6107ad565b604051610253919061268f565b60405180910390f35b610264610865565b604051610271919061246d565b60405180910390f35b610294600480360381019061028f9190611bd5565b6108f7565b005b6102b060048036038101906102ab9190611b5a565b61090d565b005b6102cc60048036038101906102c79190611ce0565b61096f565b6040516102d9919061246d565b60405180910390f35b6102ea610ac1565b6040516102f7919061268f565b60405180910390f35b61031a60048036038101906103159190611acf565b610ac7565b6040516103279190612452565b60405180910390f35b60007f80ac58cd000000000000000000000000000000000000000000000000000000007bffffffffffffffffffffffffffffffffffffffffffffffffffffffff1916827bffffffffffffffffffffffffffffffffffffffffffffffffffffffff191614806103fb57507f5b5e139f000000000000000000000000000000000000000000000000000000007bffffffffffffffffffffffffffffffffffffffffffffffffffffffff1916827bffffffffffffffffffffffffffffffffffffffffffffffffffffffff1916145b8061040b575061040a82610b5b565b5b9050919050565b606060008054610421906128ef565b80601f016020809104026020016040519081016040528092919081815260200182805461044d906128ef565b801561049a5780601f1061046f5761010080835404028352916020019161049a565b820191906000526020600020905b81548152906001019060200180831161047d57829003601f168201915b5050505050905090565b60006104af82610bc5565b6104ee576040517f08c379a00000000000000000000000000000000000000000000000000000000081526004016104e5906125ef565b60405180910390fd5b6004600083815260200190815260200160002060009054906101000a900473ffffffffffffffffffffffffffffffffffffffff169050919050565b6000610534826106fb565b90508073ffffffffffffffffffffffffffffffffffffffff168373ffffffffffffffffffffffffffffffffffffffff1614156105a5576040517f08c379a000000000000000000000000000000000000000000000000000000000815260040161059c9061264f565b60405180910390fd5b8073ffffffffffffffffffffffffffffffffffffffff166105c4610c31565b73ffffffffffffffffffffffffffffffffffffffff1614806105f357506105f2816105ed610c31565b610ac7565b5b610632576040517f08c379a00000000000000000000000000000000000000000000000000000000081526004016106299061252f565b60405180910390fd5b61063c8383610c39565b505050565b61065261064c610c31565b82610cf2565b610691576040517f08c379a00000000000000000000000000000000000000000000000000000000081526004016106889061266f565b60405180910390fd5b61069c838383610dd0565b505050565b60008060075490506106b3338261102c565b6106bd818461104a565b60016007546106cc919061277e565b60078190555080915050919050565b6106f68383836040518060200160405280600081525061090d565b505050565b6000806002600084815260200190815260200160002060009054906101000a900473ffffffffffffffffffffffffffffffffffffffff169050600073ffffffffffffffffffffffffffffffffffffffff168173ffffffffffffffffffffffffffffffffffffffff1614156107a4576040517f08c379a000000000000000000000000000000000000000000000000000000000815260040161079b9061256f565b60405180910390fd5b80915050919050565b60008073ffffffffffffffffffffffffffffffffffffffff168273ffffffffffffffffffffffffffffffffffffffff16141561081e576040517f08c379a00000000000000000000000000000000000000000000000000000000081526004016108159061254f565b60405180910390fd5b600360008373ffffffffffffffffffffffffffffffffffffffff1673ffffffffffffffffffffffffffffffffffffffff168152602001908152602001600020549050919050565b606060018054610874906128ef565b80601f01602080910402602001604051908101604052809291908181526020018280546108a0906128ef565b80156108ed5780601f106108c2576101008083540402835291602001916108ed565b820191906000526020600020905b8154815290600101906020018083116108d057829003601f168201915b5050505050905090565b610909610902610c31565b83836110be565b5050565b61091e610918610c31565b83610cf2565b61095d576040517f08c379a00000000000000000000000000000000000000000000000000000000081526004016109549061266f565b60405180910390fd5b6109698484848461122b565b50505050565b606061097a82610bc5565b6109b9576040517f08c379a00000000000000000000000000000000000000000000000000000000081526004016109b0906125cf565b60405180910390fd5b60006006600084815260200190815260200160002080546109d9906128ef565b80601f0160208091040260200160405190810160405280929190818152602001828054610a05906128ef565b8015610a525780601f10610a2757610100808354040283529160200191610a52565b820191906000526020600020905b815481529060010190602001808311610a3557829003601f168201915b505050505090506000610a63611287565b9050600081511415610a79578192505050610abc565b600082511115610aae578082604051602001610a969291906123c7565b60405160208183030381529060405292505050610abc565b610ab78461129e565b925050505b919050565b60075481565b6000600560008473ffffffffffffffffffffffffffffffffffffffff1673ffffffffffffffffffffffffffffffffffffffff16815260200190815260200160002060008373ffffffffffffffffffffffffffffffffffffffff1673ffffffffffffffffffffffffffffffffffffffff16815260200190815260200160002060009054906101000a900460ff16905092915050565b60007f01ffc9a7000000000000000000000000000000000000000000000000000000007bffffffffffffffffffffffffffffffffffffffffffffffffffffffff1916827bffffffffffffffffffffffffffffffffffffffffffffffffffffffff1916149050919050565b60008073ffffffffffffffffffffffffffffffffffffffff166002600084815260200190815260200160002060009054906101000a900473ffffffffffffffffffffffffffffffffffffffff1673ffffffffffffffffffffffffffffffffffffffff1614159050919050565b600033905090565b816004600083815260200190815260200160002060006101000a81548173ffffffffffffffffffffffffffffffffffffffff021916908373ffffffffffffffffffffffffffffffffffffffff160217905550808273ffffffffffffffffffffffffffffffffffffffff16610cac836106fb565b73ffffffffffffffffffffffffffffffffffffffff167f8c5be1e5ebec7d5bd14f71427d1e84f3dd0314c0f7b2291e5b200ac8c7c3b92560405160405180910390a45050565b6000610cfd82610bc5565b610d3c576040517f08c379a0000000000000000000000000000000000000000000000000000000008152600401610d339061250f565b60405180910390fd5b6000610d47836106fb565b90508073ffffffffffffffffffffffffffffffffffffffff168473ffffffffffffffffffffffffffffffffffffffff161480610db657508373ffffffffffffffffffffffffffffffffffffffff16610d9e846104a4565b73ffffffffffffffffffffffffffffffffffffffff16145b80610dc75750610dc68185610ac7565b5b91505092915050565b8273ffffffffffffffffffffffffffffffffffffffff16610df0826106fb565b73ffffffffffffffffffffffffffffffffffffffff1614610e46576040517f08c379a0000000000000000000000000000000000000000000000000000000008152600401610e3d9061260f565b60405180910390fd5b600073ffffffffffffffffffffffffffffffffffffffff168273ffffffffffffffffffffffffffffffffffffffff161415610eb6576040517f08c379a0000000000000000000000000000000000000000000000000000000008152600401610ead906124cf565b60405180910390fd5b610ec1838383611345565b610ecc600082610c39565b6001600360008573ffffffffffffffffffffffffffffffffffffffff1673ffffffffffffffffffffffffffffffffffffffff1681526020019081526020016000206000828254610f1c9190612805565b925050819055506001600360008473ffffffffffffffffffffffffffffffffffffffff1673ffffffffffffffffffffffffffffffffffffffff1681526020019081526020016000206000828254610f73919061277e565b92505081905550816002600083815260200190815260200160002060006101000a81548173ffffffffffffffffffffffffffffffffffffffff021916908373ffffffffffffffffffffffffffffffffffffffff160217905550808273ffffffffffffffffffffffffffffffffffffffff168473ffffffffffffffffffffffffffffffffffffffff167fddf252ad1be2c89b69c2b068fc378daa952ba7f163c4a11628f55a4df523b3ef60405160405180910390a4505050565b61104682826040518060200160405280600081525061134a565b5050565b61105382610bc5565b611092576040517f08c379a00000000000000000000000000000000000000000000000000000000081526004016110899061258f565b60405180910390fd5b806006600084815260200190815260200160002090805190602001906110b99291906118ca565b505050565b8173ffffffffffffffffffffffffffffffffffffffff168373ffffffffffffffffffffffffffffffffffffffff16141561112d576040517f08c379a0000000000000000000000000000000000000000000000000000000008152600401611124906124ef565b60405180910390fd5b80600560008573ffffffffffffffffffffffffffffffffffffffff1673ffffffffffffffffffffffffffffffffffffffff16815260200190815260200160002060008473ffffffffffffffffffffffffffffffffffffffff1673ffffffffffffffffffffffffffffffffffffffff16815260200190815260200160002060006101000a81548160ff0219169083151502179055508173ffffffffffffffffffffffffffffffffffffffff168373ffffffffffffffffffffffffffffffffffffffff167f17307eab39ab6107e8899845ad3d59bd9653f200f220920489ca2b5937696c318360405161121e9190612452565b60405180910390a3505050565b611236848484610dd0565b611242848484846113a5565b611281576040517f08c379a00000000000000000000000000000000000000000000000000000000081526004016112789061248f565b60405180910390fd5b50505050565b606060405180602001604052806000815250905090565b60606112a982610bc5565b6112e8576040517f08c379a00000000000000000000000000000000000000000000000000000000081526004016112df9061262f565b60405180910390fd5b60006112f2611287565b90506000815111611312576040518060200160405280600081525061133d565b8061131c8461153c565b60405160200161132d9291906123c7565b6040516020818303038152906040525b915050919050565b505050565b61135483836116e9565b61136160008484846113a5565b6113a0576040517f08c379a00000000000000000000000000000000000000000000000000000000081526004016113979061248f565b60405180910390fd5b505050565b60006113c68473ffffffffffffffffffffffffffffffffffffffff166118b7565b1561152f578373ffffffffffffffffffffffffffffffffffffffff1663150b7a026113ef610c31565b8786866040518563ffffffff1660e01b81526004016114119493929190612406565b602060405180830381600087803b15801561142b57600080fd5b505af192505050801561145c57506040513d601f19601f820116820180604052508101906114599190611c76565b60015b6114df573d806000811461148c576040519150601f19603f3d011682016040523d82523d6000602084013e611491565b606091505b506000815114156114d7576040517f08c379a00000000000000000000000000000000000000000000000000000000081526004016114ce9061248f565b60405180910390fd5b805181602001fd5b63150b7a0260e01b7bffffffffffffffffffffffffffffffffffffffffffffffffffffffff1916817bffffffffffffffffffffffffffffffffffffffffffffffffffffffff191614915050611534565b600190505b949350505050565b60606000821415611584576040518060400160405280600181526020017f300000000000000000000000000000000000000000000000000000000000000081525090506116e4565b600082905060005b600082146115b657808061159f90612921565b915050600a826115af91906127d4565b915061158c565b60008167ffffffffffffffff8111156115f8577f4e487b7100000000000000000000000000000000000000000000000000000000600052604160045260246000fd5b6040519080825280601f01601f19166020018201604052801561162a5781602001600182028036833780820191505090505b5090505b600085146116dd576001826116439190612805565b9150600a85611652919061296a565b603061165e919061277e565b60f81b81838151811061169a577f4e487b7100000000000000000000000000000000000000000000000000000000600052603260045260246000fd5b60200101907effffffffffffffffffffffffffffffffffffffffffffffffffffffffffffff1916908160001a905350600a856116d691906127d4565b945061162e565b8093505050505b919050565b600073ffffffffffffffffffffffffffffffffffffffff168273ffffffffffffffffffffffffffffffffffffffff161415611759576040517f08c379a0000000000000000000000000000000000000000000000000000000008152600401611750906125af565b60405180910390fd5b61176281610bc5565b156117a2576040517f08c379a0000000000000000000000000000000000000000000000000000000008152600401611799906124af565b60405180910390fd5b6117ae60008383611345565b6001600360008473ffffffffffffffffffffffffffffffffffffffff1673ffffffffffffffffffffffffffffffffffffffff16815260200190815260200160002060008282546117fe919061277e565b92505081905550816002600083815260200190815260200160002060006101000a81548173ffffffffffffffffffffffffffffffffffffffff021916908373ffffffffffffffffffffffffffffffffffffffff160217905550808273ffffffffffffffffffffffffffffffffffffffff16600073ffffffffffffffffffffffffffffffffffffffff167fddf252ad1be2c89b69c2b068fc378daa952ba7f163c4a11628f55a4df523b3ef60405160405180910390a45050565b600080823b905060008111915050919050565b8280546118d6906128ef565b90600052602060002090601f0160209004810192826118f8576000855561193f565b82601f1061191157805160ff191683800117855561193f565b8280016001018555821561193f579182015b8281111561193e578251825591602001919060010190611923565b5b50905061194c9190611950565b5090565b5b80821115611969576000816000905550600101611951565b5090565b600061198061197b846126db565b6126aa565b90508281526020810184848401111561199857600080fd5b6119a38482856128ad565b509392505050565b60006119be6119b98461270b565b6126aa565b9050828152602081018484840111156119d657600080fd5b6119e18482856128ad565b509392505050565b6000813590506119f881612a68565b92915050565b600081359050611a0d81612a7f565b92915050565b600081359050611a2281612a96565b92915050565b600081519050611a3781612a96565b92915050565b600082601f830112611a4e57600080fd5b8135611a5e84826020860161196d565b91505092915050565b600082601f830112611a7857600080fd5b8135611a888482602086016119ab565b91505092915050565b600081359050611aa081612aad565b92915050565b600060208284031215611ab857600080fd5b6000611ac6848285016119e9565b91505092915050565b60008060408385031215611ae257600080fd5b6000611af0858286016119e9565b9250506020611b01858286016119e9565b9150509250929050565b600080600060608486031215611b2057600080fd5b6000611b2e868287016119e9565b9350506020611b3f868287016119e9565b9250506040611b5086828701611a91565b9150509250925092565b60008060008060808587031215611b7057600080fd5b6000611b7e878288016119e9565b9450506020611b8f878288016119e9565b9350506040611ba087828801611a91565b925050606085013567ffffffffffffffff811115611bbd57600080fd5b611bc987828801611a3d565b91505092959194509250565b60008060408385031215611be857600080fd5b6000611bf6858286016119e9565b9250506020611c07858286016119fe565b9150509250929050565b60008060408385031215611c2457600080fd5b6000611c32858286016119e9565b9250506020611c4385828601611a91565b9150509250929050565b600060208284031215611c5f57600080fd5b6000611c6d84828501611a13565b91505092915050565b600060208284031215611c8857600080fd5b6000611c9684828501611a28565b91505092915050565b600060208284031215611cb157600080fd5b600082013567ffffffffffffffff811115611ccb57600080fd5b611cd784828501611a67565b91505092915050565b600060208284031215611cf257600080fd5b6000611d0084828501611a91565b91505092915050565b611d1281612839565b82525050565b611d218161284b565b82525050565b6000611d328261273b565b611d3c8185612751565b9350611d4c8185602086016128bc565b611d5581612a57565b840191505092915050565b6000611d6b82612746565b611d758185612762565b9350611d858185602086016128bc565b611d8e81612a57565b840191505092915050565b6000611da482612746565b611dae8185612773565b9350611dbe8185602086016128bc565b80840191505092915050565b6000611dd7603283612762565b91507f4552433732313a207472616e7366657220746f206e6f6e20455243373231526560008301527f63656976657220696d706c656d656e74657200000000000000000000000000006020830152604082019050919050565b6000611e3d601c83612762565b91507f4552433732313a20746f6b656e20616c7265616479206d696e746564000000006000830152602082019050919050565b6000611e7d602483612762565b91507f4552433732313a207472616e7366657220746f20746865207a65726f2061646460008301527f72657373000000000000000000000000000000000000000000000000000000006020830152604082019050919050565b6000611ee3601983612762565b91507f4552433732313a20617070726f766520746f2063616c6c6572000000000000006000830152602082019050919050565b6000611f23602c83612762565b91507f4552433732313a206f70657261746f7220717565727920666f72206e6f6e657860008301527f697374656e7420746f6b656e00000000000000000000000000000000000000006020830152604082019050919050565b6000611f89603883612762565b91507f4552433732313a20617070726f76652063616c6c6572206973206e6f74206f7760008301527f6e6572206e6f7220617070726f76656420666f7220616c6c00000000000000006020830152604082019050919050565b6000611fef602a83612762565b91507f4552433732313a2062616c616e636520717565727920666f7220746865207a6560008301527f726f2061646472657373000000000000000000000000000000000000000000006020830152604082019050919050565b6000612055602983612762565b91507f4552433732313a206f776e657220717565727920666f72206e6f6e657869737460008301527f656e7420746f6b656e00000000000000000000000000000000000000000000006020830152604082019050919050565b60006120bb602e83612762565b91507f45524337323155524953746f726167653a2055524920736574206f66206e6f6e60008301527f6578697374656e7420746f6b656e0000000000000000000000000000000000006020830152604082019050919050565b6000612121602083612762565b91507f4552433732313a206d696e7420746f20746865207a65726f20616464726573736000830152602082019050919050565b6000612161603183612762565b91507f45524337323155524953746f726167653a2055524920717565727920666f722060008301527f6e6f6e6578697374656e7420746f6b656e0000000000000000000000000000006020830152604082019050919050565b60006121c7602c83612762565b91507f4552433732313a20617070726f76656420717565727920666f72206e6f6e657860008301527f697374656e7420746f6b656e00000000000000000000000000000000000000006020830152604082019050919050565b600061222d602983612762565b91507f4552433732313a207472616e73666572206f6620746f6b656e2074686174206960008301527f73206e6f74206f776e00000000000000000000000000000000000000000000006020830152604082019050919050565b6000612293602f83612762565b91507f4552433732314d657461646174613a2055524920717565727920666f72206e6f60008301527f6e6578697374656e7420746f6b656e00000000000000000000000000000000006020830152604082019050919050565b60006122f9602183612762565b91507f4552433732313a20617070726f76616c20746f2063757272656e74206f776e6560008301527f72000000000000000000000000000000000000000000000000000000000000006020830152604082019050919050565b600061235f603183612762565b91507f4552433732313a207472616e736665722063616c6c6572206973206e6f74206f60008301527f776e6572206e6f7220617070726f7665640000000000000000000000000000006020830152604082019050919050565b6123c1816128a3565b82525050565b60006123d38285611d99565b91506123df8284611d99565b91508190509392505050565b60006020820190506124006000830184611d09565b92915050565b600060808201905061241b6000830187611d09565b6124286020830186611d09565b61243560408301856123b8565b81810360608301526124478184611d27565b905095945050505050565b60006020820190506124676000830184611d18565b92915050565b600060208201905081810360008301526124878184611d60565b905092915050565b600060208201905081810360008301526124a881611dca565b9050919050565b600060208201905081810360008301526124c881611e30565b9050919050565b600060208201905081810360008301526124e881611e70565b9050919050565b6000602082019050818103600083015261250881611ed6565b9050919050565b6000602082019050818103600083015261252881611f16565b9050919050565b6000602082019050818103600083015261254881611f7c565b9050919050565b6000602082019050818103600083015261256881611fe2565b9050919050565b6000602082019050818103600083015261258881612048565b9050919050565b600060208201905081810360008301526125a8816120ae565b9050919050565b600060208201905081810360008301526125c881612114565b9050919050565b600060208201905081810360008301526125e881612154565b9050919050565b60006020820190508181036000830152612608816121ba565b9050919050565b6000602082019050818103600083015261262881612220565b9050919050565b6000602082019050818103600083015261264881612286565b9050919050565b60006020820190508181036000830152612668816122ec565b9050919050565b6000602082019050818103600083015261268881612352565b9050919050565b60006020820190506126a460008301846123b8565b92915050565b6000604051905081810181811067ffffffffffffffff821117156126d1576126d0612a28565b5b8060405250919050565b600067ffffffffffffffff8211156126f6576126f5612a28565b5b601f19601f8301169050602081019050919050565b600067ffffffffffffffff82111561272657612725612a28565b5b601f19601f8301169050602081019050919050565b600081519050919050565b600081519050919050565b600082825260208201905092915050565b600082825260208201905092915050565b600081905092915050565b6000612789826128a3565b9150612794836128a3565b9250827fffffffffffffffffffffffffffffffffffffffffffffffffffffffffffffffff038211156127c9576127c861299b565b5b828201905092915050565b60006127df826128a3565b91506127ea836128a3565b9250826127fa576127f96129ca565b5b828204905092915050565b6000612810826128a3565b915061281b836128a3565b92508282101561282e5761282d61299b565b5b828203905092915050565b600061284482612883565b9050919050565b60008115159050919050565b60007fffffffff0000000000000000000000000000000000000000000000000000000082169050919050565b600073ffffffffffffffffffffffffffffffffffffffff82169050919050565b6000819050919050565b82818337600083830152505050565b60005b838110156128da5780820151818401526020810190506128bf565b838111156128e9576000848401525b50505050565b6000600282049050600182168061290757607f821691505b6020821081141561291b5761291a6129f9565b5b50919050565b600061292c826128a3565b91507fffffffffffffffffffffffffffffffffffffffffffffffffffffffffffffffff82141561295f5761295e61299b565b5b600182019050919050565b6000612975826128a3565b9150612980836128a3565b9250826129905761298f6129ca565b5b828206905092915050565b7f4e487b7100000000000000000000000000000000000000000000000000000000600052601160045260246000fd5b7f4e487b7100000000000000000000000000000000000000000000000000000000600052601260045260246000fd5b7f4e487b7100000000000000000000000000000000000000000000000000000000600052602260045260246000fd5b7f4e487b7100000000000000000000000000000000000000000000000000000000600052604160045260246000fd5b6000601f19601f8301169050919050565b612a7181612839565b8114612a7c57600080fd5b50565b612a888161284b565b8114612a9357600080fd5b50565b612a9f81612857565b8114612aaa57600080fd5b50565b612ab6816128a3565b8114612ac157600080fd5b5056fea2646970667358221220491a97276eb7ef06df1774c1a4b03bc703c4118df10d1db68e3c442e86f741e064736f6c63430008000033",
  "linkReferences": {},
  "deployedLinkReferences": {}
}